S010000052656365697665722E73726563DF
S113000070220020D51C0000D11C0000D11C00006F
S113001000000000000000000000000000000000DC
S1130020000000000000000000000000D11C0000DF
S11300300000000000000000D11C0000D11C0000E2
S1130040D11C0000D11C0000D11C000015010000CF
S1130050D11C0000D11C000021020000D11C0000B2
S1130060D11C0000D11C0000D11C0000D11C0000D8
S1130070D11C0000D11C0000D11C0000D11C0000C8
S1130080D11C0000D11C0000D11C000000000000A5
S113009000000000D11C0000D11C0000D11C000095
S11300A0D11C0000D11C0000D11C0000D11C000098
S11300B00000000010B5064C2378002B07D1054B37
S11300C0002B02D0044800E000BF0123237010BDC0
S11300D068000020000000008C29000008B5084BCF
S11300E0002B03D00748084900E000BF0748036815
S11300F0002B00D108BD064B002BFBD09847F9E735
S1130100000000008C2900006C0000208C290000F5
S11301100000000070B50022154B1A7000231F2543
S1130120144E134C1F2B19D90FE0002100E0124983
S11301304A619B009B59002B00D0984723780133D8
S1130140DBB223700F2BEDD911E0291C19400122D9
S11301508A40002149691142E7D1EFE7291C19407F
S113016001228A40044949691142E0D1E6E770BDA1
S1130170D5000020D800002000240040064A117851
S113018002230B4313700221012053681942FCD14E
S113019053681842F9D170470024004000B583B079
S11301A0184A5369802189000B43536101A9002334
S11301B00B700320144B98470320144B9847144AA0
S11301C0117801230B431370022101205368194253
S11301D0FCD15368184209D0F8E704C38B42FCD120
S11301E008220C4B1A600C4B984709E0084A137814
S11301F010218B431370094B191C40310022ECE78A
S113020003B000BD00040040751B00000D1B00007E
S11302100024004000E100E07D010000D80000203F
S1130220F0B55F4656464D464446F0B483B0C84BDD
S11302301F683D682B78DB0900D154E1288C80B21B
S1130240C44B9847041E1F2C00D9D2E0031C08336A
S11302505B01ED18ED79EDB2AB0750D0BE4A012336
S11302608340116899431160031C08335B013A68A9
S1130270944663440322DA713B18A8339B79DB0765
S11302803DD5B64B18703A68031C08335B019B5C80
S113029003221340012B10D14201B14B9B185A6821
S11302A09204920CAD494A805A681201920C8A80D9
S11302B05A68920B92035A6019E04301A84AD31872
S11302C05A681201920CA548428059688904890C25
S11302D081805868A34901405960002A07D163010D
S11302E09F4AD3185B689B049B0C9C4A5380984B91
S11302F01868A31C1B01C3185B68984998476B07CF
S11303000ED5954A0123A340116899431160904B7F
S11303101B681A68231C08335B01D3180422DA71A2
S11303202B0721D58C4A0123A340116899431160FE
S1130330874B1868231C08335B01026894466344A6
S11303400822DA710319A8339B799B070CD58349DA
S11303500C706301824AD318DA891F2313404B704F
S11303602301C3189B6A9847EB0622D57A4A0123D6
S1130370A340116899431160754B1868231C083316
S11303805B010268944663441022DA710319A833AE
S11303909B795B070DD5714A147063017049CB18C2
S11303A05B681B019B0C53802301C318DB6A00218B
S11303B09847AB0600D4F8E1674A0123A3401168CB
S11303C099431160624B1868231C08335B0102686F
S11303D0944663442022DA710319A8339B791B07DE
S11303E000D4E2E15D490C7024010419236B9847A1
S11303F0DBE1AC8BA4B2630708D50423AB83A13340
S1130400FB5CDB0702D57B68381C984723070DD5B6
S11304100022514B1A604E4B1868082302689383DC
S11304209D33C35C9B0701D58368984763060AD54F
S1130430474B18684023026893836533C35CDB062B
S113044001D543699847A3060AD5414B1868202370
S1130450026893838533C35C1B0701D503699847FE
S1130460E3060AD53A4B1868102302689383953340
S1130470C35C5B0701D5C368984723060DD50022EA
S1130480354B1A60324B18688023026893832533F6
S1130490C35C9B0601D583699847E3050ED500220A
S11304A02D4B1A602A4B186880235B0002689383E3
S11304B05B3BC35C5B0601D5C3699847A30500D4C5
S11304C073E10022244B1A60214B186880239B009F
S11304D0026893835C3BFF3BC35C7F2B00D864E1E1
S11304E0036A984761E12E8CB6B2002E40D1AE8BE0
S11304F0B6B2AB235B00FD5A3540023BFB5A1D40AC
S11305000024194F124B994698466300DB5B1E4248
S113051003D04A461268126893831D4213D0062CF6
S113052007D10F4B1B891A0980235B0013400F4A24
S11305301360231C2E339B00424612689B5842468C
S113054010680A4998470134072CDED12DE1C046D2
S11305509C000020251F000090000020880000203F
S113056018010020FF3F00F018280000840000203C
S11305703C1C5934FF340023012294465F329146D7
S1130580503A9246043A9346B8462F1CD8B2019387
S1130590321C1A416146114200D101E11A1C083291
S11305A05201BA18D279D2B2217A25782940114061
S11305B04D4615422AD03D1C47465B01ED180823E1
S11305C0FF33EB5C5B0609D540220823FF33EA5472
S11305D0883BFF3B0343784A93710AE00823FF33C7
S11305E0EB5C9B0605D520220823FF33EA54724BAB
S11305F0987160230B4200D1D7E0019B1B01FB18CB
S1130600DC335B68381C6C499847CEE0554615428C
S11306101FD03D1C4746019A131C08335B01ED189B
S11306201023EB71BB186133FF331B78DB0600D456
S1130630BBE0101C5301614AD3185B689B049B0CFC
S11306405D490B800301FB18D8335B68404698472B
S1130650ABE05D4615425FD03D1C47468046019B9A
S11306605B01ED180823FF33EB5C1B0723D508223D
S11306700823FF33EA54019B5B01504AD318183313
S11306809B789B0707D5019B5A014C4B9B189A7E7C
S1130690022082439A7680235B4242461343464AB1
S11306A09371019B08335B013A6894466344DB7998
S11306B09B0725D579E00823FF33EB5C5B071FD547
S11306C004220823FF33EA54019B5B013B4AD318FD
S11306D008339B789B0707D5019B5A01374B9B181E
S11306E09A7A022082439A72334B42469A71019B52
S11306F008335B013A6894466344DB79DB0754D4DE
S11307000C230B4251D0019B1B01FB18D4335B68B3
S1130710381C2949984748E00325154240D03D1C20
S113072047468046019B5B01ED180823FF33EB5CD1
S11307309B0712D502220823FF33EA541E4A883B42
S1130740FF3B03439371019B5B011C48C3181033A7
S11307505B689B049B0C538017E00823FF33EB5C1E
S1130760DB0712D501220823FF33EA54124843461B
S11307708371019B5A01114B9B185A689204920C85
S113078002805B681B019B0C83808B070DD0019B4F
S11307900D331B01FB185B68381C0749984704E0BC
S11307A001330134082B00D0F0E603B03CBC904682
S11307B09946A246AB46F0BD9400002018010020E3
S11307C010B54908402481420CD30023091A01338F
S11307D09BB28842FAD9013B9BB24024FF2B01D83B
S11307E013800024201C10BDF0B55F4656464D46CC
S11307F04446F0B489B01C1C12AB1B78061C5E4343
S113080040258E4200D9C7E0251C07920C1C021C0F
S1130810002D51D1181C00210023634DA8478346A5
S1130820261C0027002300240293039400220023A3
S11308303F2020218C461F390096019720246442D2
S1130840041903D40D1CA540A84604E06446241AE8
S11308500D1CE540A8460C1C8440A146141C1D1C1C
S1130860A4185D41221C2B1C5E4647463E4203D021
S11308700E1C2643321C2B1C019C9C4210D802D116
S1130880009C94420CD8009C019D121BAB414D4628
S1130890029E039F35433C1C464634430295039411
S11308A00138CBD20022012302980399121A8B41FA
S11308B0110C1B0419436CE00021012D69D1610F57
S11308C00F1CE1008846181C00210023364CA04769
S11308D0041C0D1C00239C4620339B4601266346C2
S11308E00593B9466B461B7D069300239C46002066
S11308F000213F220094019520235B42D31803D4A6
S1130900341C9C40231C04E05B469B1A341CDC40D2
S1130910231C371C9740041C0D1C24184D41201C1B
S1130920291C0290039144463C40A2464C46234075
S11309305446234305D0029B039C1D1C3543281CAD
S1130940211C019B8B420AD802D1009B834206D80A
S1130950009B019CC01AA14163463B439C46013A5B
S1130960CAD2009C019D62460599531ADB080F4ABE
S1130970934208D9069A0132D2B206920A1C013275
S11309800592082AAED14025069A082A04D05103BC
S11309901943079B19800025281C09B03CBC9046CC
S11309A09946A246AB46F0BD651F0000FF1F00003C
S11309B010B582B0041C0E4B1B78002B01D000290B
S11309C00DD001A90C7011200A4B984711200A4B35
S11309D09847074B5C7001221A70002006E0044B14
S11309E05B78834201D01D2000E0002002B010BDDE
S11309F0A0000020751B00000D1B0000404B984216
S1130A0034D007D88423DB0598420DD03D4B98425F
S1130A101BD067E03C4B98424AD03C4B984250D0A4
S1130A203B4B98425ED132E0012906D000295BD0CD
S1130A30022906D0032906D001E036485FE00020F1
S1130A405DE035485BE0354859E0012906D00029CE
S1130A504CD0022906D0032906D001E030484EE0EC
S1130A6000204CE02F484AE02F4848E0012906D0F6
S1130A7000293DD0022906D0032906D001E02B48E5
S1130A803DE000203BE02A4839E02A4837E00129CC
S1130A9006D000292ED0022906D0032906D001E071
S1130AA025482CE000202AE0244828E0244826E0B9
S1130AB0022902D0032902D01EE022481FE0224866
S1130AC01DE0012906D0002918D0022906D00329E7
S1130AD006D001E01D4812E0002010E01C480EE0A2
S1130AE01C480CE000200AE01B4808E0032006E054
S1130AF01A4804E01A4802E0002000E01948704750
S1130B0000080042000400420010004200040043B8
S1130B10000C004203000500030006000300070068
S1130B200300010003001E0003001F00030009006E
S1130B3003000A0003000B0003001100030012006D
S1130B400300130003000E0003000F00030017004E
S1130B500300180003001900030004000300080048
S1130B60030010000300160030B587B00C4B6A4632
S1130B7032CB32C232CB32C2009B834206D0012335
S1130B809A0069465258824203D100E00023D8B249
S1130B9003E00133062BF3D1002007B030BDC0467B
S1130BA028280000F0B55F4656464D464446F0B44A
S1130BB091B0061C0C1C151C3160081CB34B9847E3
S1130BC0021E052A03D0071C1237031C01E0182754
S1130BD0012321680520C90700D550E12168173099
S1130BE0890700D54BE1052A06D1A9490A6A1B38B1
S1130BF098401043086205E0A549CA69012098405D
S1130C001043C8610FA92D239846EB5C0B70FFB20B
S1130C10381CA04B9847381C9F4B98474346E85CC8
S1130C2000219E4B9847EB7A73712423EB5CB371DC
S1130C302523EB5CF371EB7E33722B7F7372336885
S1130C409A46181C914B9847123000220E2306A98D
S1130C508C4663441A802B8A99468023DB0199458C
S1130C6019D004D880239B0199450AD0E8E0C02319
S1130C70DB0199450AD080231B02994500D1E4E0A9
S1130C80DEE0102398460F3B0793E2E008239846E2
S1130C90073B0793DDE02B689B46EB6802936B6987
S1130CA003932B7E04932623EB5C05936A680692D8
S1130CB0002A16D080235B059A4239D12723EB5CA6
S1130CC0002B39D12B6A9846C0B2754B9847011C4A
S1130CD040460E2206AB9C466244724B9847031C66
S1130CE027E008239846002307932723EB5C002B77
S1130CF00CD043460093286AA96A0E2206AB9C4690
S1130D006244079B684FB847031C12E02B6A1F1C00
S1130D10C0B2634B9847011C43460093381C0E2213
S1130D2006AB9C466244079B5F4FB847031C00E038
S1130D300023181E00D0A2E06B7E002B02D0AB7EF5
S1130D40524693733268069FD369002BFCD10E334D
S1130D5006AA944663441B8852469381029B5A46D2
S1130D601343039A13433B434A461343049A120220
S1130D701343059A57071F432723EB5C002B01D12C
S1130D8004331F432B7F59026A7E93020B436A7F0D
S1130D90120213432422AA5C520413432522AA5CA0
S1130DA012041343E97A19432B89FF2B04D08022C0
S1130DB052041743194305E0EB7E002B02D0802335
S1130DC0DB041F432C23EB5C002B03D1374B9B78B4
S1130DD09B0701D580231F433268D369002BFCD1C4
S1130DE0534659603268D369002BFCD153461F60C7
S1130DF00EAB80221A7000225A70DA709A702B6B34
S1130E000A936B6B0B93AB6B0C93EB6B02930D938D
S1130E1000270EAD264EF9B2BB000AAA9858002846
S1130E2002D1201C234B9847431C04D02870000C8B
S1130E30C0B2291CB0470137042FECD100201EE0BA
S1130E40102398460023079303E0032398460023C6
S1130E5007932B689B46EB6802936B6903932B7E85
S1130E6004932623EB5C05936A680692002A00D15A
S1130E703BE780235B059A4200D11FE75CE711B092
S1130E803CBC90469946A246AB46F0BD690B0000B7
S1130E9000040040751B00000D1B0000B109000098
S1130EA0991B0000C1070000E90700000020004171
S1130EB0711C0000FD0900000368C2791C20002A8F
S1130EC00CD01A7E1738D20708D5DA69002AFCD16B
S1130ED0198502211A7E0A42FCD000207047C046C0
S1130EE0036882791C20002A2FD01A7E17385207F3
S1130EF02BD5DA69002AFCD15A8BD2B2900621D0C4
S1130F00900703D502225A831A201EE0500703D506
S1130F1004225A831E2018E0D00703D501225A83E5
S1130F20132012E0D00605D5598B10220A435A83A8
S1130F3042200AE0920605D5598B20220A435A839F
S1130F40412002E01B8D0B8000207047F8B5574606
S1130F504E46C0B41723002A49D0C4790533002C67
S1130F6045D00468E369002BFCD18A468146171CEE
S1130F70002601251FE0227E2A4204D1012B28D01D
S1130F80013B002BF7D1721C92B253469B5D49463C
S1130F904979012902D099B2161C05E0B11C8EB220
S1130FA05146895C090219434846134B98477A1EF7
S1130FB097B2002F15D0237E2B42E4D10F4BDAE7F2
S1130FC0227E0A4207D1012B07D0013B002BF7D127
S1130FD00DE012230BE0002309E0122307E00023B5
S1130FE005E0237E9B07FAD4044B0221E8E7181C92
S1130FF00CBC91469A46F8BDB90E0000FFFF0000F4
S1131000F0B557464E46C0B483B01723002A3CD0EF
S113101084790533002C38D08A4681460568171C2C
S1131020002604242CE02A7E224204D1012B23D062
S1131030013B002BF7D16B46991D00230B804846DA
S1131040154B9847002819D1731C99B26B46063387
S11310501B88524693554A465279012A05D1B21C3F
S113106096B21B0A5246535400E00E1C7A1E97B2E5
S1131070002F05D1002308E0122306E0031C04E03E
S11310802B7E2342D7D1054BCDE7181C03B00CBCF3
S113109091469A46F0BDC046E10E0000FFFF0000F5
S11310A0F0B583B001AC802323700023E3700133D7
S11310B063700227A7701B20211C334EB047334DA9
S11310C080231B056B610120211CB0476F61022046
S11310D0211CB0470423AB610320211CB047082323
S11310E06B612B4B013B002BFCD10822274B9A61EF
S11310F0284B8022D2051A6000225A60FF211981F0
S113110000219A72DA7201202424185501341855EA
S113111025301A5401301A549A6205301A545A610F
S11311201A82DA7619761977597613229A765977CC
S113113002211A329954E12252021A62C422920301
S1131140DA60012252421A635A63134A9A63134AB9
S1131150DA63134D1C1C134E281C8421C905221C60
S1131160B047114B18700028F6D10D4B1A68D3699B
S1131170002BFCD1116802330B4313600422034B90
S11311805A6103B0F0BDC046711C00000028004045
S1131190FFFF0000240200200300060003000700F4
S11311A018020020A50B00006402002008B50422E8
S11311B0044B9A6104480549013A054B9847054B8D
S11311C0187008BD002800401802002058280000AC
S11311D04D0F000064020020F0B58FB03D4BC118E4
S11311E000233D4A914271D8019002A83B4907224D
S11311F03B4B9847802212053A4B9A613A4B013B8C
S1131200002BFCD108AD0EAE2B1C00221A7001334A
S1131210B342FBD1354B9847354F381C354905222D
S1131220354B9847354C2070381C08A91822344B8C
S11312309847207004A83349019A334B98472A4BA6
S1131240013B002BFCD12A4804A90D222A4B9847C4
S11312502A4B1870244B013B002BFCD1244B1A68F9
S1131260D369002BFCD1136802218B4313601E4BFE
S1131270013B002BFCD1254B019A1A621C4F244CD4
S1131280381C8421C905214AA0471C4B187000282A
S1131290F6D1174B1A68D369002BFCD111680233BD
S11312A00B43136000232B700135B542FBD1104D65
S11312B0281C02A90722104B9847104C2070281CA8
S11312C008A918220E4B984720700123181C0FB050
S11312D0F0BDC04680DAFFFF80EA0D004028000020
S11312E00520000000280040FFFF0000AD110000B1
S11312F0180200205C2800004D0F0000640200204A
S113130001100000642800001920000024020020BD
S1131310A50B000030B58DB0041C01A81F4908318D
S113132007221F4B9847802212051E4B9A61962074
S113133080011D4B98471D4B013B002BFCD106AB94
S11313400CA900221A7001338B42FBD103A818495F
S1131350221C184B9847184D281C03A90A22174B26
S11313609847174C2070281C06A91822154B98473B
S113137020700E4B013B002BFCD10F4D281C01A902
S113138007220E4B98470E4C2070281C06A91822E1
S11313900C4B9847207001200DB030BD4028000050
S11313A00520000000280040D9110000FFFF0000C4
S11313B07428000019200000180200204D0F0000BE
S11313C0640200200110000008B50422044B9A6155
S11313D004480549054B9847054B187008BDC0469D
S11313E00028004018020020842800004D0F00004F
S11313F06402002030B58BB008A8194910310822C6
S1131400184B98470720184B9847184B013B002B63
S1131410FCD101AB07A900221A7001338B42FBD126
S1131420134D281C08A90822124B9847124C20700F
S1131430281C01A91822114B98472070104B98477B
S11314400B4D0E4C281C1F236B44191C1822A0475B
S11314500028F7D16423013B002BFCD1F2E7C046FE
S1131460402800000520000015130000FFFF0000C5
S1131470180200204D0F000064020020011000003B
S1131480C91300007047C0460C4B1B68002B10D1D9
S1131490EFF31083002B09D172B6BFF35F8F0022E4
S11314A0074B1A700132074B1A7002E00022054BF9
S11314B01A70024A1368013313607047A4000020B5
S11314C000000020A8000020084B1A68013A1A60A6
S11314D01B68002B09D1064B1B78002B05D0012279
S11314E0044B1A70BFF35F8F62B67047A4000020EC
S11314F0A80000200000002008B5082803D88000B8
S11315001C4B1B589F46002032E01B4B18692FE0F0
S11315101A4B187D0007800F0130194B584327E000
S1131520154B586924E0144B1B68022018401FD047
S1131530124980225200CB681342FCD00E4B1B6828
S11315405B0714D500200F4B98470B4B9B681B047B
S11315501B0C58430CE02823084AD35C00209B074B
S113156006D5054BD86803E08020000200E0064859
S113157008BDC0468C280000AC000020000C0040D0
S113158000093D00991B0000006CDC02F0B55F46C9
S113159056464D464446F0B4254E73699C464578FC
S11315A003785A425A41904683789A46C378477AD8
S11315B0027A9346847A42681E4842610120424678
S11315C09200904604229146624649468A439446D4
S11315D0424661460A4394460340DB000822904693
S11315E0624641468A431343514601400901102291
S11315F093430B435A460240920140218B431343C9
S11316000740FF01802293433B43793A15402D0262
S1131610094F3B402B4304402003084C1C40044327
S113162074613CBC90469946A246AB46F0BDC046A8
S113163000100040AC000020FFF8FFFFFFEFFFFFA9
S113164010B5837A9B061A0C83899B059B0D134363
S11316501A4C6360C18883881943437A027A13431E
S11316600B434278D20113438278920113432360DF
S11316700378042B0FD1837B9B06428A1343191CE6
S1131680038A1B040E4A13400B43A36021680423FE
S11316900B43236011E0202B0FD1837B9B06428AEE
S11316A01343191C038A1B04054A13400B43034AC2
S11316B09360136803490B43136010BDAC00002012
S11316C00000FF0324040000082803D88000294BED
S11316D01B589F4617204BE0274A117D02230B43DA
S11316E01375002044E0254A916902230B4393615A
S11316F000203DE0204A118A02230B43138200207C
S113170036E01E4A516902230B43536100202FE047
S11317101B490B68022213430B60174B1A83191CD5
S1131720FE32CB681342FCD0154A9168124B196201
S11317305268DA6100221A83191C0132FF32CB6825
S11317401342FCD00E4B1B689BB20B4A1383002040
S11317500EE009492822885C022303438B54081CA9
S11317603821263A435C1342FCD1002000E00020DB
S11317707047C046B0280000000C00400010004034
S1131780AC000020F0B54F464646C0B48DB0802270
S113179052006F4B9A60FD3A6E4B9A606E494B68EB
S11317A01B3293431C3A13434B608023DB059B7825
S11317B0022B09D08023DB05013A9A7101329A7019
S11317C01A1C9379002BFCD009A880231B024360C8
S11317D00123C3700022827203700421417083705C
S11317E0427203725D4B984705205D4B98475D49F3
S11317F00122CB681A42FCD05A4A516980230B4318
S11318005361534B1A7D802149420A431A75197D4D
S113181040220A431A7504AB002100229980D98022
S11318201A725A723F3199813B3919705A700122E8
S11318309A704D4B1B689B0E3F2B00D1203B04A894
S11318408372B723DB004382032383731C33038235
S1131850464B9847464B984701AC012666600025E5
S1131860657025726572052323700120211C414B8C
S1131870984698470120404FB84766606570062334
S11318802370257265720220211CC0470220B847CC
S1131890666065702572657207239946237003207C
S11318A0211CC0470320B8476660657025726572C5
S11318B04B4623700420211CC0470420B8472670DF
S11318C00020211C2D4B984700202D4B98470720C2
S11318D0234B98471E49D0221201CB6813409342F0
S11318E0FBD11B4A118B80230B431383254C00230C
S11318F0237163710122A27101A94B700620087043
S11319004B7204334B600A7200201A4B9847002034
S1131910194B984700201C4B98472379013BD8402A
S11319201A4B98420ED88023DB059B78002B09D0F4
S11319308023DB0501229A7100229A701A1C937984
S1131940002BFCD00DB00CBC90469946F0BDC046AF
S1131950000C004000140040004000418D150000C0
S1131960C9160000001000402060800041160000ED
S113197091190000B5190000611A0000751B0000E0
S11319800D1B000000040040A11A0000001BB7005A
S1131990064A516940230B4353610122044B1A70D8
S11319A0191C0B781342FCD17047C0460004004058
S11319B00018004070B5041C0D784B78002B02D041
S11319C08023DB001D434B7A002B02D080231B01B4
S11319D01D434A68012A17D9531E1A420FD1022AFD
S11319E006D90223002001305B009A42FBD800E0B4
S11319F0002080235B011D430004054304E012041E
S1131A0080239B001A4315430B7A002B02D08023BA
S1131A109B011D430426A6400D490E4A4B68134002
S1131A201E42FBD10C4B9847A400094B9C466444CE
S1131A30206A80235B001840284320626146054ADF
S1131A404B6813401E42FBD1044B984770BDC046FF
S1131A5000180040FC07000089140000C9140000AD
S1131A6010B5041C0422824009480A4943680B400B
S1131A701A42FBD1084B9847A400054B9C4664448A
S1131A80236A8022520013432362044B984710BDFB
S1131A9000180040FC07000089140000C91400006D
S1131AA0F8B5041C042282401248134943680B40D1
S1131AB01A42FBD1114B98470E4F0834A400E35946
S1131AC00F2018400E4B9847061CE559ED04ED0F06
S1131AD0E459240C0B4B9847002D07D1012C07D94E
S1131AE0301C211C084B9847061C01E00134E640D9
S1131AF0301CF8BD00180040FC07000089140000E9
S1131B00F9140000C9140000011E000010B5041CE3
S1131B10084B9847A400084BE018802281584023C2
S1131B200B4383508021403A43581A42FCD0034B64
S1131B30984710BD8914000000180040C914000023
S1131B4010B5041C084B9847A400084BE0188022E9
S1131B50835840218B4383504031403A43581A42C2
S1131B60FCD1034B984710BD8914000000180040B5
S1131B70C914000038B5041C0D1C054B98472B787C
S1131B800F2213402034A400024AA35038BDC0469B
S1131B90411B00000018004010B5041C064B984778
S1131BA02034A400054BE3580F241C40044B9847F1
S1131BB0201C044B984710BD8914000000180040F5
S1131BC0C9140000A11A000030B5D378002B1ED12F
S1131BD01478802C04D0240680235B021C4300E08C
S1131BE0002453780225AB430AD19378002B03D108
S1131BF080239B021C4302E0C023DB021C434160A0
S1131C005378013B012B12D8184B1C400FE0416064
S1131C100B041B0CA024E405234383620B0CD02487
S1131C20240623438362D378002B18D01CE00B04D2
S1131C301B0CA025ED052B43234383620B0CD025FD
S1131C402D062B4323438362D378002B0CD16303EB
S1131C5005D59378012B01D1816100E0416153786E
S1131C60013B012B00D8816030BDC046FFFFFBFF64
S1131C7008B5031C0A1CC1090020002904D1580915
S1131C80C00105498C4660441F210B401E39994010
S1131C90024B984708BDC04600280040C91B0000FD
S1131CA07047C04608B5054B9847054B9847054B08
S1131CB09847054B9847054B984708BD8517000082
S1131CC085140000A11C00009D010000A11C00005F
S1131CD0FEE7C04610B51D4B1D4A9A4203D01D4B6A
S1131CE01A4A9A4204D31C4B1C4A9A4210D31EE04F
S1131CF01B4A184B03339B1A9B0801339B00002299
S1131D00124813498C58845004329A42FAD1EAE7B3
S1131D10144A114B03339B1A9B0801339B00002286
S1131D200E4800211418216004329A42FAD10E4A56
S1131D30FF210E4B8B4393600D4A516880230B4364
S1131D4053600C4B98470C4B9847FEE7000000206B
S1131D508C290000680000206C020020680000202C
S1131D60040000206C00002000ED00E000000000F2
S1131D7000400041B91F0000A11D0000031C064AD9
S1131D801268002A02D10549034A1160024A106808
S1131D90C31813607047C046C4000020702200209E
S1131DA038B5114D01242C70BFF35F8F62B60F4B11
S1131DB000221A705A709A70DA701C710C4B984792
S1131DC00C494B681E2293431A1C042313434B6093
S1131DD02C70BFF35F8F62B6074B9847074B984749
S1131DE0BFF34F8F30BFFBE700000020D00000207E
S1131DF0A51C000000400041A1100000F5130000E4
S1131E00002243088B4274D303098B425FD3030A35
S1131E108B4244D3030B8B4228D3030C8B420DD348
S1131E20FF22090212BA030C8B4202D312120902D6
S1131E3065D0030B8B4219D300E0090AC30B8B4214
S1131E4001D3CB03C01A5241830B8B4201D38B03C2
S1131E50C01A5241430B8B4201D34B03C01A524167
S1131E60030B8B4201D30B03C01A5241C30A8B42AA
S1131E7001D3CB02C01A5241830A8B4201D38B0295
S1131E80C01A5241430A8B4201D34B02C01A524139
S1131E90030A8B4201D30B02C01A5241CDD2C309AB
S1131EA08B4201D3CB01C01A524183098B4201D327
S1131EB08B01C01A524143098B4201D34B01C01A12
S1131EC0524103098B4201D30B01C01A5241C3088A
S1131ED08B4201D3CB00C01A524183088B4201D3F9
S1131EE08B00C01A524143088B4201D34B00C01AE5
S1131EF05241411A00D20146524110467047FFE751
S1131F0001B5002000F00CF802BDC0460029F7D04E
S1131F1003B5FFF775FF0EBC4243891A1847C04644
S1131F207047C046414208401C2101231B049842CB
S1131F3001D3000C10391B0A984201D3000A083956
S1131F401B09984201D30009043902A2105C401A0B
S1131F507047C0461B1C1D1D1E1E1E1E1F1F1F1F5B
S1131F601F1F1F1FF0B54F46464605042D0C2C1CA1
S1131F70C0B41704160C3F0C9946030C7C437543FC
S1131F805F4373437D19260CAD199C46AF4203D9B8
S1131F9080235B029846C4444B4651434343240484
S1131FA02E0C240C2D0466442C1959188919201C54
S1131FB00CBC90469946F0BD0E4B70B500251E1C16
S1131FC00D4CE41AA410A54204D0AB00F358984772
S1131FD00135F8E700F0CAFC084B00251E1C084C2C
S1131FE0E41AA410A54204D0AB00F3589847013575
S1131FF0F8E770BD782900007829000078290000EE
S11320007C290000002310B5934203D0CC5CC45457
S11320100133F9E710BD00000EB410B59DB002A95C
S1132020029008610B488224886048610120404284
S11320301FABC881084804CBA400006801938C81BD
S113204000F0C4F80023029A13701DB010BC08BC41
S113205003B01847FFFFFF7F64000020032370B51F
S1132060CC1C9C430834051C0C2C01D20C2405E028
S1132070002C03DA0C2300202B6042E08C42F9D3BD
S1132080204A1368101C191C002913D00A68121B5B
S11320900DD40B2A02D90A608B181FE08B4202D19F
S11320A05A6802601BE04A685A600B1C17E00B1C5C
S11320B04968E9E7144E3368002B03D1281C00F06B
S11320C001FB3060281C211C00F0FCFA031C421C9C
S11320D0D0D00322C61C964386420AD11C60181C29
S11320E007210B301A1D8843821A0AD05142995095
S11320F007E0311A281C00F0E5FA431CBAD0331C5F
S1132100ECE770BDCC000020C8000020F0B58E685C
S113211085B0071C0C1C03920193B34245D3902352
S11321208A89DB001A423DD0032509692368019896
S11321305B1A029363695D43EB0F5D19029B6D109B
S113214001331B189D4200D21D1C381C53050FD5AA
S1132150291CFFF783FF061E13D0029A2169FFF79B
S113216051FFA289184B134080221343A38111E02D
S11321702A1C00F01FFB061E0CD1381C216900F03C
S1132180D3FA0C23402201203B60A389404213432D
S1132190A38117E0029B2661F61826606561019E03
S11321A0ED1AA560019BB34200D2019E321C206847
S11321B0039900F0A4FA0020A3689B1BA360236882
S11321C09E19266005B0F0BD7FFBFFFFF0B59FB000
S11321D0029005938B890E1C171C1B0610D50B69E6
S11321E0002B0DD14021FFF739FF3060306100280A
S11321F004D10C23029A01381360D0E040237361A8
S1132200002306AD6B6120336B761033AB763C1C38
S11322102378002B03D1E31B049312D003E0252B76
S1132220F9D00134F4E7049B0298311C3A1CFFF7FF
S11322306DFF431C00D1ACE06A69049B944663447F
S11322406B612378002B00D1A3E0012200235242CA
S11322506A6002A95432521801342B60EB60AB60FF
S11322601370AB654F4F2178381C052200F03CFAFF
S1132270002808D0C01B01278740381C2B68013474
S113228018432860EEE72B68DA0604D55322202190
S113229002A8121811701A0704D553222B2102A880
S11322A01218117022782A2A01D0099B0EE0059A8F
S11322B0111D12680591002A01DB099204E05242C3
S11322C0EA60022213432B60013409E02278303A99
S11322D0092A04D80A214B4301349B18F6E70993D1
S11322E023782E2B18D163782A2B09D1059B02342D
S11322F01A1D1B680592002B0DDA01235B420AE0CC
S1132300002301342278303A092A04D80A214B43A5
S113231001349B18F6E70793234F2178381C0322D6
S113232000F0E2F9002807D0C01B40278740381C82
S11323302B6801341843286021781C480622671C46
S1132340297600F0D1F9002812D0194B002B06D1C0
S11323500722059B073393430833059314E005AB29
S113236000930298291C321C124B00E000BF07E0C6
S113237005AB00930298291C321C0E4B00F08AF81E
S11323800390039B013304D06B69039A9B186B6120
S11323903DE7B3890B985B0601D5012040421FB08D
S11323A0F0BDC046382900003E2900004229000043
S11323B0000000000D210000F7B5171C01930A6905
S11323C08B6800900C1C934200DA131C221C3B60A7
S11323D043321278002A01D001333B6023689B0604
S11323E002D53B6802333B60062523681D401ED09E
S11323F0231C43331B785A1E9341226892061CD532
S11324003020E1184031C870211C5A1C453109782C
S1132410A21840320233D1700FE0221C012300982D
S113242001991932089EB047431C0ED00135E36868
S11324303A689B1A9D42F0DBDAE7221C0098019966
S11324404332089DA847431C02D10120404220E0AA
S113245006232068E1683A6803400025042B03D171
S11324608D1AEB43DB171D40A3682269934201DDFB
S11324709B1AED180027AF420ADA221C01230098A8
S113248001991A32089EB047431CDED00137F2E7A7
S11324900020FEBDF0B58BB006920A1C43320793B0
S11324A0059004920A7E0C1C109B6E2A00D1A8E0B1
S11324B011D8632A22D009D8002A00D1B2E0582AC0
S11324C000D0C2E045310A707C4A4FE0642A1DD036
S11324D0692A1BD0B9E0732A00D1A7E009D86F2A72
S11324E029D0702A00D0B0E0202209680A43226073
S11324F037E0752A1FD0782A33D0A6E00E1C1A685C
S11325004236111D196013683370A1E021681A68FE
S1132510080606D4490604D5111D19600023D55EAA
S113252002E0111D19601568002D3BDA2D23049A71
S11325306D42137036E021681A68080606D449060D
S113254004D51568111D1960ADB202E0111D1960A2
S113255015685A4B227E03930A276F2A1DD1082738
S11325601BE0221C782145321170554A19680392E8
S1132570081D226818600D68100602D4500600D5A4
S1132580ADB2D30702D520231A4322601027002DB1
S113259003D1202322689A432260231C0022433360
S11325A01A7002E00A27454B03936368A360002B6B
S11325B003DB0422216891432160002D02D1049E93
S11325C0002B0ED0049E281C391CFFF79FFC039B94
S11325D0013E5B5C281C3370391CFFF711FC051E9F
S11325E0F1D1082F09D12368DB0706D56368226976
S11325F0934202DC3023013E3370049B9B1B236116
S11326002BE009681A68080607D4490605D5111D88
S113261019601368A28A1A8004E0111D19601368F6
S113262062691A600023049E236116E01A68111D72
S1132630196016680021301C626800F055F8002803
S113264001D0801B6060636803E0261C4236327050
S1132650012323610023049A1370079B05980093B8
S1132660211C069B09AAFFF7A7FE431C02D10120E7
S1132670404221E0236905980699321C079DA8472A
S1132680431CF4D023689B0705D4099BE068984257
S113269012DA181C10E00025E368099A9B1A9D427F
S11326A0F3DA221C0123059806991932079EB047D4
S11326B0431CDCD00135EFE70BB0F0BD4929000025
S11326C05A29000038B50023064C051C081C236059
S11326D0FFF754FB431C03D12368002B00D02B606D
S11326E038BDC04668020020C9B28218904204D0A6
S11326F003788B4202D00130F8E70020704710B510
S1132700814208D28B18984205D29B1A013A09D308
S1132710995C8154FAE70023934203D0CC5CC454FF
S11327200133F9E710BD000030B500293ED004396B
S11327300B68002B00DAC9181D4A1368141C002BFF
S113274002D14B60116031E099420DD208680A1839
S11327509A4203D11368C3180B6053684B6021601D
S113276024E08A4203D8131C5A68002AF9D11D6850
S11327705C198C420BD10968691858181960904289
S113278014D110685268091819605A600EE08C421E
S113279002D90C23036009E008680C18944203D1A1
S11327A014685268001908604A60596030BDC04618
S11327B0CC000020F8B5061C0C1C151C002904D103
S11327C0111CFFF74BFC041C18E0002A03D1FFF78F
S11327D0ABFF2C1C12E000F013F8A8420ED2301C00
S11327E0291CFFF73BFC071E07D0211C2A1CFFF7FE
S11327F009FC301C211CFFF797FF3C1C201CF8BD72
S11328000B1F1A68101F002A04DA891804390B6890
S1132810D0180438704700000400080070008000DD
S11328200100000100020000000000420004004218
S113283000080042000C0042001000420004004363
S113284041545330303F0D0041545330343F0D0058
S113285041545330333D340D2B2B2B0041542F5610
S11328600D00000041545330303D252B3036640DAB
S11328700000000041545330343D252B3033640DA7
S11328800000000041544F0D000000000A15000034
S11328900615000006150000681500006815000004
S11328A02015000010150000261500005615000024
S11328B0F4160000D4160000D41600006E170000B1
S11328C0E616000002170000D816000010170000DA
S11328D05217000043000000000000000000000048
S11328E000000000000000000000000000000000E4
S11328F000000000000000000000000000000000D4
S113290000000000000000000000000000000000C3
S113291000000000000000000000000000000000B3
S113292000000000000000000000000000000000A3
S11329300000000000000000232D302B2000686CF4
S11329404C006566674546470030313233343536CE
S11329503738394142434445460030313233343507
S1132960363738396162636465660000F8B5C0467D
S1132970F8BC08BC9E467047DD000000F8B5C046B0
S10F2980F8BC08BC9E467047B50000007F
S113298C0100000000000000D8280000F828000016
S113299C18290000000000000000000000000000E6
S11329AC00000000D428000000000000000000001B
S11329BC0000000000000000000000000000000007
S11329CC00000000000000000000000000000000F7
S11329DC00000000000000000000000000000000E7
S10B29EC0000000004000020BB
S9031CD50B
